:2000000013C0E9C1FDCFFCCFFBCFFACFF9CFF8CFF7CFF6C1F5CFF4CFF3CFF2CF5AC2F0CF48
:20002000EFCFEECFEDCF0000F894EE27ECBBF1E0FBBFEBBFE5BFF8E1F1BDE1BD8DE0A2E054
:20004000BB27ED938A95E9F780E094E0A0E6ED930197E9F7E6E2F0E085919591009761F031
:20006000A591B59105901590BF01F00105900D920197E1F7FB01F0CFEFE5EDBFE4E0EEBFC9
:20008000C0E6D1E003C0E0917201089574D1EFEFE093620144FE3CC0F894EFEE4E227894A9
:2000A000E0916E01F0916F013197E0936E01F0936F01309709F4B2D6E0917001F0917101B1
:2000C0003197E0937001F0937101309709F4ADD6B3D649F0E0916C01F0916D013197E0936E
:2000E0006C01F0936D01AED629F0E0916901E150E09369010FD2E0936201A0916201A131FF
:2001000029F4B2D2A3D6E0E0E0936301BDD10BD3A0916201A13009F49DD6A0916201A23186
:2001200021F484D1FA93EA935BD1E0917201E03011F095D609F401C08DD6A0916201A33136
:2001400099F4E1E0E0937201E3E0F0E08CD6E1E8FEE88CD6EFE0FAE889D6E0EAFBE886D64C
:2001600088D6E8E0E0936301E0916301E03001F576D6E9F085D611F401E20DC0E43011F459
:2001800002E209C0E83011F403E205C0E03211F404E201C00FEF0F3F51F076D6E093600180
:2001A000F093610174D676D6E1E0E0936301D1C0E13031F554D619F163D611F401E40DC040
:2001C000E43011F402E409C0E83011F403E405C0E03211F404E401C00FEF0F3F81F0E091A0
:2001E0006001F0916101FE2FE0E0DF014DD6EA2BFB2B53D6E2E0E093650156D659D6A9C008
:20020000E23049F4E1E4F1E248D62AD2E1E0E0936701EAE09CC0E33021F44ED6F3D454D6DE
:2002200096C0E43021F448D68DD44ED690C0E53051F502D6D9F4A0916601A33048F4E09134
:200240006601EF5FE0936601E6E0E09363010CC044D6EED145D6A0916501A23011F4E0E084
:2002600001C0EAE0E093680155D40CC03DD651F400D655243CD63ED633D6EAE0E0936801A6
:2002800049D4EED166C0E630C1F4A0916601A23051F4A0916E01B0916F01A130E0E0BE073B
:2002A00009F42BD609C0A0917001B0917101A130E0E0BE0709F421D64CC0E73049F4E09107
:2002C0008601E03021F4E0916801E093630141C0EA3039F5C4D521F1D3D511F4E1E011C08E
:2002E000E43011F4E5E00DC0E83011F4EDE009C0E03211F4EEE005C0E03111F4EAE001C055
:20030000EFEFE0936501A0916501AF3F49F0E0916701E03019F0C8D599D501C0EED5C8D54A
:2003200018C0E83049F470D1E0916401E560EA9309D45524E9E00BC0E93031F4D5D519F4D8
:200340005524A5D5D7D505C0C8D5A4D5E0E0E093630178D571F4E0916A01F0916B01319749
:20036000E0936A01F0936B01309711F473D501C0C8D58DCEFFCFF894EEE2E7BBE2E0E8BBB2
:20038000E8EFE1BBE2BBE0E0E4BBEFE3E5BB69D02DD1BAD04FD07AD22CD04424E0E0E093B9
:2003A0006C01E0936D01ADD5ECE2F1E0E0936A01F0936B0133D539D549D5E0E0E093640135
:2003C000ADD4E2E0E0936301E3E0E5BFE0E4EABFEBBF78940895EA93E1E05E2EE9911895EB
:2003E000F89439D1E881F981309709F03CD5C198FFCFE1E0E8BFE9BFE4E0E3BF86D508951E
:20040000EA93EFB7EA9381D5E0E14E2AE991EFBFE9911895A0E0B0E05CD60895A1E0B0E06E
:2004200058D60895A2E0B0E054D60895A0E4B0E04CD608950A93E9E5EDB90EB10FB100E0D5
:20044000C29A099108950A93F894E981EFB9EEB1E078E038E1F70EB10FB17894E02F0881C4
:200460004FC3E7E4E7B9EEE0E6B9B89AC098EFEFF3E0E0937301F0937401E4E4F6E1E09346
:200480007501F09376010895E0917501F09176013196E0937501F0937601A0917501B091DE
:2004A0007601AF36E7E1BE0719F4C09A379A10C0A0917501B0917601A037E7E1BE0740F058
:2004C000E0E0E0937501E0937601E6B1E06CE6B90895EA93FA93EFB7EA93E4B1F5B1E0938F
:2004E0007301F0937401E6B1EF73E6B9C098E991EFBFF991E9911895A0917301B09174016C
:20050000ECE1F2E0DCD5089503D5E093770104D507D50895F6D51FEFE0917801EF5FE09355
:200520007801E3B3EF73AFE3EA270E2FE0917A01E03039F1013029F4FAD410F402D554C039
:2005400020C0093029F404D511F4E2E14DC019C0013229F4ECD410F4F4D446C012C00332F5
:2005600031F4F6D419F4DCD4E3E13EC00AC0E0E0E0937A01EDD411F4E1E036C0E0E0E093E5
:200580007901EAD431F4C8D4003019F4C1D4E0937901E2D421F0A0917801A33008F423C080
:2005A000BBD400937701E0917B01E030E1F4013021F4E1E0E0937A0113C0023011F412E0DE
:2005C0000FC0043011F414E00BC0083011F418E007C0003211F410E203C0003109F410E14D
:2005E000E1E0E0937B01E12F96D50895B9D400D1BAD4BCD4E0E0E0937C01E0937D01B9D489
:20060000BCD4BFD4C9D40895B1D4BBD40895E981C7D4C8D439F4EBE4F0E0E0938401F093E4
:200620008501C3D4E0E0E0938001E093810168C2E881B6D4E881E0938301E4E6F0E0E0936A
:200640008001F0938101B5D4E0E0E0938401E0938501ABD419C184D4E3D088D484D4089525
:20066000E1E0E0937F01089588D408952297A5D4F070EE83FF8300E010E0A2D428F520E048
:2006800030E02032EEE43E0720F49FD42F5F3F4FF8CF23D4ADD020E030E02033E5E73E078F
:2006A00020F493D42F5F3F4FF8CF17D4B9D020E030E02033E5E73E0720F487D42F5F3F4F69
:2006C000F8CF0F5F1F4FD9CFE885F985F070EE83FF8300E010E074D428F520E030E02032FA
:2006E000EEE43E0720F471D42F5F3F4FF8CFFFD37FD020E030E02033E5E73E0720F465D4C5
:200700002F5F3F4FF8CFF3D38BD020E030E02033E5E73E0720F459D42F5F3F4FF8CF0F5FCF
:200720001F4FD9CFF8C257D4D9F0E0918001F09181013197E0938001F09381014CD469F0C6
:20074000E0918201E150E0938201E03029F4E0918301EA937DD02DD402C008D41DD40FC033
:2007600040D469F0E0918401F09185013197E0938401F093850135D411F4F8D30DD4E0911B
:200780007F01E03019F0ECD333D00AC0E0917E01E150E0937E01E03019F4E2D359D0E9D36A
:2007A000ABDEE03019F1E0917C01F0917D013196E0937C01F0937D01A0917C01B0917D0184
:2007C000A83EE3E0BE0728F0E0E0E0937C01E0937D01A0917C01B0917D01AA30E0E0BE0726
:2007E00018F4E0E0DDD301C0BED301C0BCD30895FED311F4979813C0FDD311F496980FC094
:20080000FCD311F495980BC0FBD311F4949807C0FAD311F0C7D319F4E2B3EF79E2BB34C043
:20082000E6D311F4979A13C0E5D311F4969A0FC0E4D311F4959A0BC0E3D311F4949A07C0D4
:20084000E2D311F0AFD319F4E2B3E066E2BB1CC0CED319F4E2B3A0E815C0CCD319F4E2B31E
:20086000A0E410C0CAD319F4E2B3A0E20BC0C8D319F4E2B3A0E106C0C6D311F093D321F4FF
:20088000E2B3A0E6EA27E2BB21960895E5E5E0938901E0938A01E0938B01E5E8E0938C01AA
:2008A000E0938D01E0938E01E5E8F1E8DFD2EFE1F2E8DCD2E0EFF3E8D9D2E0E0F4E8D6D2ED
:2008C000E0E0F5E8D3D2E1ECFEE8D0D2E0E0FFE8CDD2E0E0F0E9CAD2E0E0F1E9C7D2E0E013
:2008E000F2E9C4D2E8E8F9E8C1D214D10895E881F981E0938701F0938801E134A1E2FA073E
:2009000069F4EFE0F7E8B2D2E0EAF8E8AFD2E6EAFAE8ACD2E8E2FBE8A9D2F2C0E234A1E27A
:20092000FA0759F4E0EFF7E8A1D2E0E6F8E89ED2EDEAFAE89BD26AD3E3C0E334A1E2FA0791
:2009400059F4E8EFF7E892D2E0E3F8E88FD2E9EBFAE88CD25ED3D4C0E434A1E2FA0769F45A
:20096000E0E0F7E883D2E0E0F8E880D2E5ECFAE87DD2E8E6FBE87AD2C3C0E134A2E2FA0775
:2009800069F4E7E0F7E872D2E0EDF8E86FD2EDECFAE86CD2E8E3FBE869D2B2C0E234A2E234
:2009A000FA0769F4EFE1F7E861D2E0E4F8E85ED2E8EDFAE85BD2E0EFFBE858D2A1C0E334EB
:2009C000A2E2FA0769F4E7E2F7E850D2E0E1F8E84DD2E4EEFAE84AD2E8EAFBE847D290C0BD
:2009E000E434A2E2FA0769F4EEE2F7E83FD2E0EEF8E83CD2ECEEFAE839D2E8E7FBE836D200
:200A00007FC0E134A3E2FA0769F4E6E3F7E82ED2E0EBF8E82BD2E8EFFAE828D2E0E3FBE8F6
:200A200025D26EC0E234A3E2FA0759F4EEE3F7E81DD2F2D2E3E0FAE819D2E8EEFBE816D214
:200A40005FC0E334A3E2FA0759F4E1ECF7E80ED2E3D2EBE0FAE80AD2E8EBFBE807D250C024
:200A6000E434A3E2FA0769F4E9ECF7E8FFD1E0E5F8E8FCD1E7E1FAE8F9D1E0E7FBE8F6D1A0
:200A80003FC0E134A4E2FA0769F4E5EBF7E8EED1E8ECF8E8EBD1EFE1FAE8E8D1E0E4FBE86E
:200AA000E5D12EC0E234A4E2FA0759F4E1EDF7E8DDD1E0E2F8E8DAD1EAE2FAE8D7D1A6D232
:200AC0001FC0E334A4E2FA0759F4E0EEF7E8CED1E0ECF8E8CBD1E6E3FAE8C8D19AD210C038
:200AE000E434A4E2FA0761F4E8EDF7E8BFD1E0EFF8E8BCD1EEE3FAE8B9D1E0E8FBE8B6D113
:200B000022960895939AE0EFF6E8B0D193980895939A0895939AE0E3F6E8A8D19398089584
:200B20000A93E981FA81E070EF2FF0E00E2FC29876D2098174D2EFEFEA9385DCC29A0881A5
:200B400023960895239739D26CD2EFE8F1E077D2EFE8F1E0FF93EF9377D2AF91BF91EC9337
:200B6000E0E9F1E06CD2E0E9F1E0FF93EF9370D2AF91BF91EC93E1E9F1E061D2E1E9F1E035
:200B8000FF93EF9369D2AF91BF91EC93E2E9F1E067D2E2E9F1E0FF93EF9367D2AF91BF91A9
:200BA000EC93EFE8F1E0308127E0E9E0E21738F062D2E757FE4FE0813E0F2F5FF6CF3093E9
:200BC0009301E0918F015AD253695CD2E091900155D2546957D2E091910150D2556952D254
:200BE000E09192014BD256694DD24FD219F050D252D254D287DF09E811E01A930A93D9D025
:200C000087DF89C0239779D2E5E5E0939401E0939501E0939601E0939701E0939801E093B1
:200C20009901E0918C01E0939A01E0918D01E0939B01E0918E01E0939C01E0918F01E0937C
:200C40009D01E0919001E0939E01E0919101E0939F01E0919201E093A001E985E2D1EDE9BD
:200C6000F1E0EDD1EDE9F1E0FF93EF93EDD1AF91BF91EC93EEE9F1E0E2D1EEE9F1E0FF93C8
:200C8000EF93E6D1AF91BF91EC93EFE9F1E0D7D1EFE9F1E0FF93EF93DFD1AF91BF91EC933F
:200CA000E0EAF1E0DDD1E0EAF1E0FF93EF93DDD1AF91BF91EC93EDE9F1E030812AE0ECE051
:200CC000E21738F0D8D1EC56FE4FE0813E0F2F5FF6CF3093A101E0919D01D0D15369D2D146
:200CE000E0919E01CBD15469CDD1E0919F01C6D15569C8D1E091A001C1D15669C3D1C5D161
:200D000019F0C6D1C8D1CAD1FDDE04E911E01A930A9345D0FDDEF8D12A960895F0D17ADBD0
:200D20000E2F7CDB1E2F7EDB2E2FBBD1E4703E2FE02FDBD1E87F3E2BE12FE295EF70E695E3
:200D4000E695E695E1703E2B30938F01E02FE295EF70E695E695AAD1EE0FEC7F3E2B3093A6
:200D600090019FD1A3D1E295E07FEE0FEE0FEE0FE0783E2BE22FE695EC773E2B30939101C3
:200D8000E22FE295E07FEE0FE07E3E2FE22FE295E0713E2B30939201B9D1249608958AD1D0
:200DA000899AF894A881B98168E07EE009C02296089580D1899AF894A881B98168E07BE057
:200DC0008C91119687FF05C0000000000000919A05C000000000919800000000615071F0D9
:200DE000880F000000000000000000000000000000000000000000000000E4CF715039F0BF
:200E000068E000000000000000000000D9CF789495E09150F1F7899822960895E4E0F0E08E
:200E2000E0936E01F0936F010895E5E0F0E0E0937001F09371010895E0916C01F0916D0168
:200E400030970895E0916901E0300895E0E0E09367010895E0E0F0E0FA93EA93C1CAA09118
:200E60006201AF3F0895FA93EA9300CCFA93EA9357CEE8E1F5E1E0936A01F0936B01089576
:200E8000E0916201E2300895E02FF0E00895E4E0EA930895E0E0EA93BACBE0936001F0935C
:200EA0006101FA93EA9323CDE3E0E09363010895E1E0E09366010895A7DBE0916501A091DD
:200EC0006401EA2BEA9308955524E1E0F0E0E0936C01F0936D01E5E00895E3E0EA93089564
:200EE000E7E0E09363010895E1E0E5150895E2E0EA930895E1E0EA938ACBE4E0E093630155
:200F00000895E4E6E09369010895E3E6E2BF0895E0E0E0937B010895E0E0E0937801089554
:200F2000E1E0E0937901E0E0E0937A010895E0917A01EF5FE0937A01A0917A01E8ECEA170F
:200F40000895E0E0E0937A01E0937901E1E10895E0917901E0300895A09177010A170895FB
:200F6000E5E0EA930895E0E0EA935ACCE1E0EA9357CCE2E3E0937E010895E0E0E0937F01C7
:200F80000895E0E0E0938001E0938101E0E0E0938401E09385010895E0E0E0938601089566
:200FA000EA9326CCA881A1300895E1E0E09386010895EAE0E093820108959FD0E9850895FC
:200FC000EE81FF810E171F070895E22FF32F31964E2F5F2F0895E0918001F09181013097DC
:200FE0000895E0918401F091850130970895A881A5300895A881A3300895A881A230089527
:20100000E881E0300895A881A4300895E8EFFBE82DCFE0EBFBE82ACFE0E8F8E827CF0A9388
:2010200012CAE295EF70E695E270E887E985E295E270EF83E9855DD0E270EE830895DF013E
:20104000EC91ED7FEC930895E081A885EA2B0895E081AF81EA2B0895E081AE81EA2B0895C6
:20106000DF01EC91E07FEC930895E081AE2FE985EF70EA2B0895E22FF0E00895F0E04E2F10
:201080005F2F08955A934A934BCDFDD7E0300895E5E5F3E9EBCEE5E5F4E9E8CEE5E5F5E95E
:2010A000E5CEE02FE295EF70E6950895E1703E2FE12F0895E881F981E883F9830895AE17E9
:2010C000BF07E1E008F0EE270895119602D0FE2F1197E199FECFFF93FFB7F894AEBBBFBB93
:2010E000E09AEDB3FFBFFF910895EE0FEE0FEE0F0895E695E695E69508955A934A933A93B2
:1C1100002A931A930A9308955D814C813B812A811981088108950991199108957C
:00000001FF
